:100000000C9438000C94F4000C94F4000C94F4005C
:100010000C94F4000C94F4000C94F4000C94F40090
:100020000C94F4000C94F4000C94F4000C94F40080
:100030000C94F4000C94F4000C94F4000C94F40070
:100040000C94F4000C94F4000C94F4000C94F40060
:100050000C94F4000C94F4000C94F4000C94F40050
:100060000C94F4000C94F400010001040001F6006B
:1000700011241FBECFEFD8E0DEBFCDBFE8E6F0E031
:1000800040E017C0B591A59135912591059107FDE7
:100090000CC095918591EF01F92FE82F05900D92F5
:1000A000A217B307D9F7FE0104C01D92A217B30728
:1000B000E1F7EF36F40731F70E9462000C94E90093
:0400C000F894FFCFE2
:1000C4008FEF84B915B81AB88BB90E94AA00809131
:1000D4000201909103010197C9F485B120910001B7
:1000E40030910101232B11F49DEF01C09EEF892370
:1000F40085B925B181E090E00090000102C0880F2D
:10010400991F0A94E2F7822785B918C085B1209116
:10011400000130910101232B11F49DEF01C09EEFEA
:10012400892385B925B181E090E00090000102C0E7
:10013400880F991F0A94E2F7822B85B92FEF84E385
:100144009CE0215080409040E1F700C00000BDCF0A
:100154004A991CC08091000190910101892B91F46E
:100164008091020190910301019729F410920301F7
:10017400109202010BC081E090E090930301809300
:10018400020104C010920101109200014B991EC09B
:100194008091000190910101019791F480910201F5
:1001A40090910301019729F4109203011092020126
:1001B400089581E090E090930301809302010895F3
:0E01C40081E090E09093010180930001089586
:1001D200EC010E94F9000E94F800CE010E94FA0090
:0601E200CE010E94F600B0
:0401E8000C94000073
:0401EC000E9460000D
:0201F000089570
:0201F20008956E
:0201F40008956C
:0201F600010006
:0201F800010004
:00000001FF
